{
  "contractName": "Election",
  "abi": [
    {
      "inputs": [],
      "payable": false,
      "stateMutability": "nonpayable",
      "type": "constructor"
    },
    {
      "anonymous": false,
      "inputs": [
        {
          "indexed": true,
          "internalType": "uint256",
          "name": "_candidateId",
          "type": "uint256"
        }
      ],
      "name": "votedEvent",
      "type": "event"
    },
    {
      "constant": true,
      "inputs": [
        {
          "internalType": "uint256",
          "name": "",
          "type": "uint256"
        }
      ],
      "name": "candidates",
      "outputs": [
        {
          "internalType": "uint256",
          "name": "id",
          "type": "uint256"
        },
        {
          "internalType": "string",
          "name": "name",
          "type": "string"
        },
        {
          "internalType": "uint256",
          "name": "voteCount",
          "type": "uint256"
        },
        {
          "internalType": "string",
          "name": "ipfs_hash",
          "type": "string"
        }
      ],
      "payable": false,
      "stateMutability": "view",
      "type": "function"
    },
    {
      "constant": true,
      "inputs": [],
      "name": "candidatesCount",
      "outputs": [
        {
          "internalType": "uint256",
          "name": "",
          "type": "uint256"
        }
      ],
      "payable": false,
      "stateMutability": "view",
      "type": "function"
    },
    {
      "constant": true,
      "inputs": [
        {
          "internalType": "address",
          "name": "",
          "type": "address"
        }
      ],
      "name": "voters",
      "outputs": [
        {
          "internalType": "bool",
          "name": "",
          "type": "bool"
        }
      ],
      "payable": false,
      "stateMutability": "view",
      "type": "function"
    },
    {
      "constant": false,
      "inputs": [
        {
          "internalType": "uint256",
          "name": "_candidateId",
          "type": "uint256"
        },
        {
          "internalType": "string",
          "name": "ip_hash",
          "type": "string"
        }
      ],
      "name": "vote",
      "outputs": [],
      "payable": false,
      "stateMutability": "nonpayable",
      "type": "function"
    }
  ],
  "bytecode": "0x608060405234801561001057600080fd5b506100556040518060400160405280600b81526020017f43616e64696461746520310000000000000000000000000000000000000000008152506100e260201b60201c565b6100996040518060400160405280600b81526020017f43616e64696461746520320000000000000000000000000000000000000000008152506100e260201b60201c565b6100dd6040518060400160405280600481526020017f4e4f5441000000000000000000000000000000000000000000000000000000008152506100e260201b60201c565b610235565b600260008154809291906001019190505550604051806080016040528060025481526020018281526020016000815260200160405180602001604052806000815250815250600160006002548152602001908152602001600020600082015181600001556020820151816001019080519060200190610162929190610190565b50604082015181600201556060820151816003019080519060200190610189929190610190565b5090505050565b828054600181600116156101000203166002900490600052602060002090601f016020900481019282601f106101d157805160ff19168380011785556101ff565b828001600101855582156101ff579182015b828111156101fe5782518255916020019190600101906101e3565b5b50905061020c9190610210565b5090565b61023291905b8082111561022e576000816000905550600101610216565b5090565b90565b61065b806102446000396000f3fe608060405234801561001057600080fd5b506004361061004c5760003560e01c806324108475146100515780632d35a8a2146101165780633477ee2e14610134578063a3ec138d14610255575b600080fd5b6101146004803603604081101561006757600080fd5b81019080803590602001909291908035906020019064010000000081111561008e57600080fd5b8201836020820111156100a057600080fd5b803590602001918460018302840111640100000000831117156100c257600080fd5b91908080601f016020809104026020016040519081016040528093929190818152602001838380828437600081840152601f19601f8201169050808301925050505050505091929192905050506102b1565b005b61011e6103fb565b6040518082815260200191505060405180910390f35b6101606004803603602081101561014a57600080fd5b8101908080359060200190929190505050610401565b604051808581526020018060200184815260200180602001838103835286818151815260200191508051906020019080838360005b838110156101b0578082015181840152602081019050610195565b50505050905090810190601f1680156101dd5780820380516001836020036101000a031916815260200191505b50838103825284818151815260200191508051906020019080838360005b838110156102165780820151818401526020810190506101fb565b50505050905090810190601f1680156102435780820380516001836020036101000a031916815260200191505b50965050505050505060405180910390f35b6102976004803603602081101561026b57600080fd5b81019080803573ffffffffffffffffffffffffffffffffffffffff169060200190929190505050610561565b604051808215151515815260200191505060405180910390f35b6000803373ffffffffffffffffffffffffffffffffffffffff1673ffffffffffffffffffffffffffffffffffffffff16815260200190815260200160002060009054906101000a900460ff161561030757600080fd5b60008211801561031957506002548211155b61032257600080fd5b60016000803373ffffffffffffffffffffffffffffffffffffffff1673ffffffffffffffffffffffffffffffffffffffff16815260200190815260200160002060006101000a81548160ff0219169083151502179055506001600083815260200190815260200160002060020160008154809291906001019190505550806001600084815260200190815260200160002060030190805190602001906103c9929190610581565b50817ffff3c900d938d21d0990d786e819f29b8d05c1ef587b462b939609625b684b1660405160405180910390a25050565b60025481565b6001602052806000526040600020600091509050806000015490806001018054600181600116156101000203166002900480601f0160208091040260200160405190810160405280929190818152602001828054600181600116156101000203166002900480156104b35780601f10610488576101008083540402835291602001916104b3565b820191906000526020600020905b81548152906001019060200180831161049657829003601f168201915b505050505090806002015490806003018054600181600116156101000203166002900480601f0160208091040260200160405190810160405280929190818152602001828054600181600116156101000203166002900480156105575780601f1061052c57610100808354040283529160200191610557565b820191906000526020600020905b81548152906001019060200180831161053a57829003601f168201915b5050505050905084565b60006020528060005260406000206000915054906101000a900460ff1681565b828054600181600116156101000203166002900490600052602060002090601f016020900481019282601f106105c257805160ff19168380011785556105f0565b828001600101855582156105f0579182015b828111156105ef5782518255916020019190600101906105d4565b5b5090506105fd9190610601565b5090565b61062391905b8082111561061f576000816000905550600101610607565b5090565b9056fea265627a7a72315820c65e99ce231147dd0c59eba954f1c2e3303a73f1c7e4edff8c950b24da0858a864736f6c63430005100032",
  "source": "pragma solidity ^0.5.16; \n\ncontract Election{\n\n struct Candidate {\n        uint id;\n        string name;\n        uint voteCount;\n        string ipfs_hash;\n    }\n\n    // Keeps track that an address voted\n    mapping(address => bool) public voters;\n    // Keeps track of candidates\n    mapping(uint => Candidate) public candidates;\n    // Keeps track of candidates to compare ids\n    uint public candidatesCount;\n\n    // voted event\n    event votedEvent (\n        uint indexed _candidateId\n    );\n\n    constructor() public {\n        addCandidate(\"Candidate 1\");\n        addCandidate(\"Candidate 2\");\n        addCandidate(\"NOTA\");\n\n    }\n\n    function addCandidate (string memory _name) private {\n        candidatesCount ++;\n        candidates[candidatesCount] = Candidate(candidatesCount, _name, 0,\"\");\n    }\n\n    function vote (uint _candidateId, string memory ip_hash) public {\n        // require that they haven't voted before\n        require(!voters[msg.sender]);\n\n        // require a valid candidate\n        require(_candidateId > 0 && _candidateId <= candidatesCount);\n\n        // record that candidate has voted\n        voters[msg.sender] = true;\n\n        // update candidate vote counter\n        candidates[_candidateId].voteCount ++;\n\n        candidates[_candidateId].ipfs_hash = ip_hash;\n\n        // trigger voted event\n        emit votedEvent(_candidateId);\n    }\n}\n",
  "sourcePath": "C:/Users/Mohammed Sadiq/Desktop/7th sem/Minior Project/election/contracts/Election.sol",
  "compiler": {
    "name": "solc",
    "version": "0.5.16+commit.9c3226ce.Emscripten.clang"
  },
  "schemaVersion": "3.2.5",
  "updatedAt": "2021-01-13T14:35:53.369Z",
  "networkType": "ethereum",
  "devdoc": {
    "methods": {}
  },
  "userdoc": {
    "methods": {}
  }
}